:020000040800F2
:100000000030002009430008493E00084B3E00082C
:100010004D3E00084F3E0008513E00080000000021
:10002000000000000000000000000000533E000837
:10003000553E000800000000573E0008593E0008E9
:100040005943000859430008594300085943000820
:100050005943000859430008613E0008953F0008D5
:10006000994000089D410008594300085943000881
:1000700059430008594300085943000859430008F0
:1000800059430008594300085943000859430008E0
:1000900059430008594300085943000859430008D0
:1000A00059430008594300085943000859430008C0
:1000B0005943000859430008000000005943000854
:1000C00059430008000000000000000059430008E8
:1000D0000000000059430008594300085943000834
:1000E00059430008594300080000000000000000C8
:1000F0000000000000000000000000000000000000
:1001000000000000000000000000000000000000EF
:100110000000000000000000594300085943000897
:1001200000000000000000000000000000000000CF
:1001300000000000000000000000000000000000BF
:100140005943000859430008000000000000000067
:10015000000000000000000000000000000000009F
:10016000000000000000000000000000000000008F
:10017000000000000000000000000000000000007F
:080180000000000059430008D3
:1001880010B5054C237833B9044B13B10448AFF3C9
:1001980000800123237010BD7400002000000000BF
:1001A8000C5F000808B5034B1BB103490348AFF3C4
:1001B800008008BD00000000780000200C5F0008E7
:1001C80081F0004102E000BF83F0004330B54FEA00
:1001D80041044FEA430594EA050F08BF90EA020F6D
:1001E8001FBF54EA000C55EA020C7FEA645C7FEA00
:1001F800655C00F0E2804FEA5454D4EB5555B8BF23
:100208006D420CDD2C4480EA020281EA030382EA93
:10021800000083EA010180EA020281EA0303362D25
:1002280088BF30BD11F0004F4FEA01314FF4801CF8
:100238004CEA113102D0404261EB410113F0004F0A
:100248004FEA03334CEA133302D0524263EB4303C1
:1002580094EA050F00F0A780A4F10104D5F1200E5F
:100268000DDB02FA0EFC22FA05F2801841F10001BA
:1002780003FA0EF2801843FA05F359410EE0A5F18E
:1002880020050EF1200E012A03FA0EFC28BF4CF0BF
:10029800020C43FA05F3C01851EBE37101F0004575
:1002A80007D54FF0000EDCF1000C7EEB00006EEB82
:1002B8000101B1F5801F1BD3B1F5001F0CD349080C
:1002C8005FEA30004FEA3C0C04F101044FEA445263
:1002D80012F5800F80F09A80BCF1004F08BF5FEAEA
:1002E800500C50F1000041EB045141EA050130BDCA
:1002F8005FEA4C0C404141EB010111F4801FA4F16D
:100308000104E9D191F0000F04BF01460020B1FAC1
:1003180081F308BF2033A3F10B03B3F120020CDAF9
:100328000C3208DD02F1140CC2F10C0201FA0CF0D7
:1003380021FA02F10CE002F11402D8BFC2F1200C3C
:1003480001FA02F120FA0CFCDCBF41EA0C019040F2
:10035800E41AA2BF01EB0451294330BD6FEA04043B
:100368001F3C1CDA0C340EDC04F11404C4F1200226
:1003780020FA04F001FA02F340EA030021FA04F338
:1003880045EA030130BDC4F10C04C4F1200220FA8F
:1003980002F001FA04F340EA0300294630BD21FACD
:1003A80004F0294630BD94F0000F83F4801306BF93
:1003B80081F480110134013D4EE77FEA645C18BF87
:1003C8007FEA655C29D094EA050F08BF90EA020F1E
:1003D80005D054EA000C04BF1946104630BD91EA16
:1003E800030F1EBF0021002030BD5FEA545C05D119
:1003F8004000494128BF41F0004130BD14F5800458
:100408003CBF01F5801130BD01F0004545F0FE41CB
:1004180041F470014FF0000030BD7FEA645C1ABF00
:10042800194610467FEA655C1CBF0B46024650EA37
:10043800013406BF52EA033591EA030F41F4002163
:1004480030BD00BF90F0000F04BF0021704730B5E9
:100458004FF4806404F132044FF000054FF00001BE
:1004680050E700BF90F0000F04BF0021704730B57F
:100478004FF4806404F1320410F0004548BF404254
:100488004FF000013EE700BF42004FEAE2014FEAA9
:1004980031014FEA02701FBF12F07F4393F07F4F84
:1004A80081F06051704732F07F4208BF704793F087
:1004B8007F4F04BF41F40021704730B54FF460749A
:1004C80001F0004521F000411CE700BF50EA01029D
:1004D80008BF704730B54FF000050AE050EA010246
:1004E80008BF704730B511F0004502D5404261EBB6
:1004F80041014FF4806404F132045FEA915C3FF4F7
:10050800D8AE4FF003025FEADC0C18BF03325FEA93
:10051800DC0C18BF033202EBDC02C2F1200300FA44
:1005280003FC20FA02F001FA03FE40EA0E0021FA69
:1005380002F11444BDE600BF70B54FF0FF0C4CF457
:10054800E06C1CEA11541DBF1CEA135594EA0C0F09
:1005580095EA0C0F00F0DEF82C4481EA030621EA44
:100568004C5123EA4C5350EA013518BF52EA03357F
:1005780041F4801143F4801338D0A0FB02CE4FF031
:100588000005E1FB02E506F00042E0FB03E54FF061
:100598000006E1FB03569CF0000F18BF4EF0010E59
:1005A800A4F1FF04B6F5007F64F5407404D25FEA55
:1005B8004E0E6D4146EB060642EAC62141EA555108
:1005C8004FEAC52040EA5E504FEACE2EB4F1FD0C4A
:1005D80088BFBCF5E06F1ED8BEF1004F08BF5FEAC8
:1005E800500E50F1000041EB045170BD06F000467A
:1005F80046EA010140EA020081EA0301B4EB5C0427
:10060800C2BFD4EB0C0541EA045170BD41F480111E
:100618004FF0000E013C00F3AB8014F1360FDEBF43
:10062800002001F0004170BDC4F10004203C35DA1F
:100638000C341BDC04F11404C4F1200500FA05F3A2
:1006480020FA04F001FA05F240EA020001F0004243
:1006580021F0004110EBD37021FA04F642EB0601B9
:100668005EEA430E08BF20EAD37070BDC4F10C04E3
:10067800C4F1200500FA04F320FA05F001FA04F2A7
:1006880040EA020001F0004110EBD37041F1000193
:100698005EEA430E08BF20EAD37070BDC4F120059E
:1006A80000FA05F24EEA020E20FA04F301FA05F206
:1006B80043EA020321FA04F001F0004121FA04F2AE
:1006C80020EA020000EBD3705EEA430E08BF20EA7E
:1006D800D37070BD94F0000F0FD101F000464000B8
:1006E80041EB010111F4801F08BF013CF7D041EA3A
:1006F800060195F0000F18BF704703F0004652003E
:1007080043EB030313F4801F08BF013DF7D043EA0E
:100718000603704794EA0C0F0CEA135518BF95EAC4
:100728000C0F0CD050EA410618BF52EA4306D1D14B
:1007380081EA030101F000414FF0000070BD50EA6A
:10074800410606BF1046194652EA430619D094EAF4
:100758000C0F02D150EA013613D195EA0C0F05D1DE
:1007680052EA03361CBF104619460AD181EA030132
:1007780001F0004141F0FE4141F470014FF00000EA
:1007880070BD41F0FE4141F4780170BD70B54FF085
:10079800FF0C4CF4E06C1CEA11541DBF1CEA135505
:1007A80094EA0C0F95EA0C0F00F0A7F8A4EB0504E7
:1007B80081EA030E52EA03354FEA013100F08880DE
:1007C8004FEA03334FF0805545EA131343EA1263A7
:1007D8004FEA022245EA111545EA10654FEA00265C
:1007E8000EF000419D4208BF964244F1FD0404F515
:1007F800407402D25B084FEA3202B61A65EB030571
:100808005B084FEA32024FF480104FF4002CB6EB2D
:10081800020E75EB030E22BFB61A754640EA0C00AD
:100828005B084FEA3202B6EB020E75EB030E22BFED
:10083800B61A754640EA5C005B084FEA3202B6EB2E
:10084800020E75EB030E22BFB61A754640EA9C00ED
:100858005B084FEA3202B6EB020E75EB030E22BFBD
:10086800B61A754640EADC0055EA060E18D04FEA7B
:10087800051545EA16754FEA06164FEAC30343EA1B
:1008880052734FEAC2025FEA1C1CC0D111F4801FE8
:100898000BD141EA00014FF000004FF0004CB6E7E1
:1008A80011F4801F04BF01430020B4F1FD0C88BF80
:1008B800BCF5E06F3FF6AFAEB5EB030C04BFB6EB8B
:1008C800020C5FEA500C50F1000041EB045170BD7E
:1008D8000EF0004E4EEA113114EB5C04C2BFD4EBAB
:1008E8000C0541EA045170BD41F480114FF0000E2F
:1008F800013C90E645EA060E8DE60CEA135594EAAB
:100908000C0F08BF95EA0C0F3FF43BAF94EA0C0FAD
:100918000AD150EA01347FF434AF95EA0C0F7FF422
:1009280025AF104619462CE795EA0C0F06D152EA76
:1009380003353FF4FDAE1046194622E750EA41065A
:1009480018BF52EA43067FF4C5AE50EA41047FF46B
:100958000DAF52EA43057FF4EBAE12E74FF0FF3CD0
:1009680006E000BF4FF0010C02E000BF4FF0010CA1
:100978004DF804CD4FEA410C7FEA6C5C4FEA430C1A
:1009880018BF7FEA6C5C1BD001B050EA410C0CBF69
:1009980052EA430C91EA030F02BF90EA020F0020CB
:1009A800704710F1000F91EA030F58BF994208BF32
:1009B80090422CBFD8176FEAE37040F001007047EF
:1009C8004FEA410C7FEA6C5C02D150EA013C07D146
:1009D8004FEA430C7FEA6C5CD6D152EA033CD3D091
:1009E8005DF8040B704700BF8446104662468C468B
:1009F8001946634600E000BF01B5FFF7B7FF0028BE
:100A080048BF10F1000F01BD4DF808EDFFF7F4FFE6
:100A18000CBF012000205DF808FB00BF4DF808ED71
:100A2800FFF7EAFF34BF012000205DF808FB00BF94
:100A38004DF808EDFFF7E0FF94BF012000205DF8B6
:100A480008FB00BF4DF808EDFFF7CEFF94BF01206B
:100A580000205DF808FB00BF4DF808EDFFF7C4FF64
:100A680034BF012000205DF808FB00BF4FEA410CAD
:100A78007FEA6C5C02D150EA013C0AD14FEA430C90
:100A88007FEA6C5C02D152EA033C02D14FF00000CD
:100A980070474FF0010070474FEA410212F500120B
:100AA80015D211D56FF47873B3EB625212D94FEAAD
:100AB800C12343F0004343EA505311F0004F23FA97
:100AC80002F018BF404270474FF00000704750EAEC
:100AD800013005D111F0004008BF6FF000407047A9
:100AE8004FF00000704700BF4FEA4102B2F1E04307
:100AF80024BFB3F5001CDCF1FE5C0DD901F0004CFD
:100B08004FEAC0024CEA5070B2F1004F40EB83004C
:100B180008BF20F00100704711F0804F21D113F178
:100B28003872BCBF01F00040704741F480114FEAB1
:100B38005252C2F11802C2F1200C10FA0CF320FA3A
:100B480002F018BF40F001004FEAC1234FEAD32357
:100B580003FA0CFC40EA0C0023FA02F34FEA4303C1
:100B6800CCE77FEA625307D150EA01331EBF4FF04A
:100B7800FE4040F44000704701F0004040F0FE4065
:100B880040F40000704700BF10B504460E4B1878BB
:100B98004FF47A73B3FBF0F30C4A1068B0FBF3F030
:100BA80000F0A2F868B90F2C01D901200AE0002250
:100BB80021464FF0FF3000F055F8034B5C600020F1
:100BC80000E0012010BD00BF000000200800002048
:100BD80008B5074A136843F010031360032000F0B8
:100BE8002FF80020FFF7D0FF03F082F8002008BD9F
:100BF80000200240034A1168034B1B780B44136022
:100C0800704700BF9000002000000020014B1868CA
:100C1800704700BF9000002038B50446FFF7F6FF84
:100C28000546B4F1FF3F02D0044B1B781C44FFF784
:100C3800EDFF401BA042FAD338BD00BF00000020E2
:100C4800074AD36823F4E0631B041B0C000200F47A
:100C5800E060184340F0BF6040F40030D060704757
:100C680000ED00E030B4174BDB68C3F30223C3F197
:100C78000704042C28BF04241D1D062D18D9033B86
:100C88004FF0FF3505FA04F421EA0401994005FA0A
:100C980003F322EA0303194300280BDB0901C9B255
:100CA80000F1604000F5614080F8001330BC7047E7
:100CB8000023E5E700F00F000901C9B2024B1954FF
:100CC800F4E700BF00ED00E014ED00E0002807DBCA
:100CD80000F01F02400901239340024A42F82030E5
:100CE800704700BF00E100E00138B0F1807F0AD210
:100CF800064B5860064AF02182F8231000209860BD
:100D080007221A6070470120704700BF10E000E01A
:100D180000ED00E0F0B482B0002336E0032400E0E8
:100D28000024B4403C430235584E46F82540584C00
:100D38002568D44304EA05064F6817F4803F01D0BC
:100D480042EA0506524D2E606D6804EA05064F68B2
:100D580017F4003F01D042EA05064D4D6E60AD68BC
:100D680004EA05064F6817F4801F01D042EA050619
:100D7800474DAE60ED682C404E6816F4001F01D058
:100D880042EA0504424AD46001330A6832FA03F49D
:100D980078D001249C402240F6D04D68022D01D025
:100DA800122D10D1DE08083650F826C003F00705CA
:100DB800AF000F25BD402CEA050C0D69BD4045EA82
:100DC8000C0540F8265006685F000325BD40ED433A
:100DD80005EA060C4E6806F00306BE4046EA0C0615
:100DE80006604E6806F1FF3CBCF1010F03D9112ED5
:100DF80001D0122E10D1866805EA060CCE68BE40D6
:100E080046EA0C068660466826EA04044E68C6F37D
:100E180000169E4026434660C46825408C68BC4046
:100E28002C43C4604C6814F0805FADD0194CA569A0
:100E380045F00105A561A46904F001040194019C31
:100E48009D08AE1C114C54F8267003F00304A6004C
:100E58000F24B44027EA0407B0F1904F3FF460AF85
:100E68000D4CA0420AD004F58064A04208D004F5D5
:100E78008064A0423FF452AF052452E7012450E7B2
:100E880002244EE702B0F0BC704700BF00000140EA
:100E980000040140001002400004004803691942A0
:100EA80001D100207047012070470AB9816270475C
:100EB800816170477047000008B5054B5B690342C4
:100EC80000D108BD024B5861FFF7F4FFF9E700BFF6
:100ED8000004014003689A6912F0020F01D0002251
:100EE8009A6203689A6912F0010F03D19A6942F075
:100EF80001029A61704770B4039E05686868740DB2
:100F080004F4806444F07F7444F4583444F47F74E7
:100F180044F0030420EA0400C1F3090141EA024154
:100F2800194331430143696070BC704770B504468A
:100F38000D46164603689B6913F0100F1CD02368F2
:100F48009A6912F0200F19D1B5F1FF3FF7D0FFF7DA
:100F58005DFE801BA84201D8002DF0D1636C43F0E0
:100F680020036364202384F84130002384F842304E
:100F780084F84030012020E000201EE01022DA61D1
:100F880023682025DD612046FFF7A4FF2268536807
:100F980023F0FF7323F48B3323F4FF7323F001034F
:100FA8005360636C43F00403636484F84150002386
:100FB80084F8423084F84030012070BD70B5044692
:100FC8000D46164623689B6913F0020F1DD1324661
:100FD80029462046FFF7AAFFC8B9B5F1FF3FF1D06F
:100FE800FFF714FE801BA84201D8002DEAD1636CDC
:100FF80043F020036364202384F84130002384F8FD
:10100800423084F84030012000E0002070BD01200B
:10101800FCE7F8B505460F4616461C462B689B6943
:1010280037EA03030CBF01230023B34218D1B4F1FC
:10103800FF3FF3D0FFF7EAFD069BC01AA04201D894
:10104800002CEBD16B6C43F020036B64202385F8F4
:101058004130002385F8423085F84030012000E017
:101068000020F8BD70B582B0044616461D46184BE0
:1010780000930023EAB2FFF73EFF079A069920463D
:10108800FFF79CFFE8B9012D0ED12368F6B29E62E6
:10109800079B0093069B002240212046FFF7B9FFDB
:1010A800034678B101230DE02368320A9A62079A51
:1010B80006992046FFF782FF38B92368F6B29E6288
:1010C800E6E70123184602B070BD0123FAE700BF26
:1010D8000020008070B505460C4616462B689B69B3
:1010E80013F0200F1AD1324621462846FFF71EFF7B
:1010F800B0B9FFF78BFD801BA04201D8002CEDD1C1
:101108006B6C43F020036B64202385F84130002387
:1011180085F8423085F84030012070BD0020FCE79A
:101128000120FAE7002859D010B5044690F841305C
:10113800002B43D0242384F841302268136823F01D
:10114800010313606368226823F0706313612268E7
:10115800936823F400439360E368012B33D0A368BA
:10116800226843F404439360E368022B31D0226879
:10117800536843F0007343F4004353602268D36814
:1011880023F40043D360236962691343A169226889
:1011980043EA0123D360E369216A22680B431360A1
:1011A8002268136843F00103136000206064202361
:1011B80084F84130206384F8420010BD80F8403044
:1011C80002F0AEFDB6E7A368226843F400439360DB
:1011D800CAE723684FF400625A60C8E701207047E5
:1011E8002DE9F04383B090F84150EDB2202D40F046
:1011F800A48090F84040012C00F0A480984617463F
:101208000E4604464FF0010980F84090FFF7FEFCB7
:101218000546009019234A464FF400412046FFF73F
:10122800F8FE002840F09080212384F841301023F4
:1012380084F84230002363646762A4F82A806363F9
:10124800638D9BB2FF2B0AD9FF222285424B009364
:101258004FF0807331462046FFF74DFE18E0628D4F
:1012680092B222853C4B00934FF00073D2B23146C4
:101278002046FFF740FE0BE0628D92B222850023E4
:1012880000934FF00073D2B231462046FFF733FE89
:10129800638D9BB2002B33D02A460A992046FFF76C
:1012A8008DFE002852D1626A236812789A62636AB6
:1012B80001336362638D013B9BB26385238D013BE0
:1012C8009BB22385628D92B2002AE1D0002BDFD138
:1012D80000950A9B002280212046FFF79AFE0028ED
:1012E80036D1638D9BB2FF2BC6D9FF2222850023FE
:1012F80000934FF0807331462046FFF7FCFDC7E7A7
:101308002A460A992046FFF7E5FE034610BB2268E5
:101318002021D1612068426822F0FF7222F48B32CA
:1013280022F4FF7222F00102426084F84110002288
:1013380084F8422084F8402000E00223184603B0D5
:10134800BDE8F0830223F9E70123F7E70123F5E776
:101358000123F3E70123F1E7002000802DE9F0479E
:1013680082B0BDF82C7090F84150EDB2202D40F0BD
:10137800BC800A9CDCB1D7B190F84040012C00F049
:10138800B980984691460D4604464FF0010A80F808
:1013980040A0FFF73BFC06460090192352464FF445
:1013A80000412046FFF735FE30B101239EE04FF49F
:1013B80000734364012399E0222384F841304023D9
:1013C80084F84230002363640A9A62626785636323
:1013D80001960C9B009343464A4629462046FFF750
:1013E80041FE70B9638D9BB2FF2B0FD9FF22228576
:1013F800444B00934FF0807329462046FFF77BFD4E
:1014080021E0002384F8403053466FE0628D92B2A9
:1014180022853C4B00934FF00073D2B229462046F8
:10142800FFF769FD0FE0628D92B2228500230093D9
:101438004FF00073D2B229462046FFF75CFD638D5A
:101448009BB2002B34D000960C9B0022042120462E
:10145800FFF7DFFD00284FD123685A6A636A1A70C4
:10146800636A01336362238D013B9BB22385628DDE
:10147800013A92B26285628D92B2002ADFD0002BC7
:10148800DDD100960C9B002280212046FFF7C1FD8C
:10149800A0BB638D9BB2FF2BC5D9FF2222850023F9
:1014A80000934FF0807329462046FFF724FDC6E7D6
:1014B80032460C992046FFF70DFE034600BB226812
:1014C8002021D1612068426822F0FF7222F48B3219
:1014D80022F4FF7222F00102426084F841100022D7
:1014E80084F8422084F8402000E00223184602B025
:1014F800BDE8F0870223F9E70123F7E70123F5E7C1
:101508000123F3E70024008090F84130DBB2202B60
:1015180024D190F84030012B22D0012380F84030AC
:10152800242380F841300268136823F00103136014
:101538000268136823F48053136002681368194320
:1015480011600268136843F001031360202380F8D8
:101558004130002380F84030184670470220704719
:101568000220704790F84130DBB2202B22D190F84E
:101578004030012B20D0012380F84030242380F80C
:1015880041300268136823F001031360026813688E
:1015980023F4706343EA012111600268136843F081
:1015A80001031360202380F84130002380F8403085
:1015B800184670470220704702207047002800F044
:1015C8000D8370B582B00446036813F0010F3BD059
:1015D800B54B5B6803F00C03042B1ED0B24B5B6861
:1015E80003F00C03082B13D06368B3F5803F68D071
:1015F800002B40F0928003F1804303F504331A680E
:1016080022F480321A601A6822F480221A605DE09F
:10161800A54B5B6813F4803FE6D04FF4003393FA90
:10162800A3F3A14B19684FF4003393FAA3F3B3FA69
:1016380083F303F01F03012202FA03F30B4203D0E2
:101648006368002B00F0CC82236813F0020F00F0CF
:10165800C680954B5B6813F00C0F00F09C80924B92
:101668005B6803F00C03082B00F08F802369002BC4
:1016780000F0F380012292FAA2F3B3FA83F303F1A4
:10168800845303F584139B001A60FFF7BFFA0546DD
:10169800022393FAA3F3844B1968022393FAA3F362
:1016A800B3FA83F303F01F03012202FA03F30B4298
:1016B80040F0C480FFF7AAFA401B0228E8D90320AB
:1016C80095E2794A136843F480331360764AD36A03
:1016D80023F00F03A1680B43D3626368002B36D055
:1016E800FFF794FA05464FF4003393FAA3F36E4BD1
:1016F80019684FF4003393FAA3F3B3FA83F303F0B2
:101708001F03012202FA03F30B429DD1FFF77EFA71
:10171800401B6428E7D9032069E2B3F5A02F09D05C
:10172800614B1A6822F480321A601A6822F4802207
:101738001A60CBE703F18043A3F53C331A6842F4FF
:1017480080221A601A6842F480321A60BEE7FFF7F6
:101758005DFA05464FF4003393FAA3F3524B196828
:101768004FF4003393FAA3F3B3FA83F303F01F03A0
:10177800012202FA03F30B423FF466AFFFF746FA81
:10178800401B6428E6D9032031E2474B5B6813F419
:10179800803F7FF46BAF022393FAA3F3424B19689F
:1017A800022393FAA3F3B3FA83F303F01F0301228E
:1017B80002FA03F30B4204D02369934201D00120BB
:1017C80015E23948036823F0F8036169F82292FAB0
:1017D800A2F2B2FA82F201FA02F21343036023681A
:1017E80013F0080F00F08C80A369002B60D0012152
:1017F80091FAA1F2B2FA82F22C4B13449B001960C1
:10180800FFF704FA0546022393FAA3F293FAA3F228
:1018180093FAA3F2244A516A93FAA3F3B3FA83F32F
:1018280003F01F03012202FA03F30B4268D1FFF70A
:10183800EDF9401B0228E6D90320D8E11A480368CD
:1018480023F0F8036169F82292FAA2F2B2FA82F25E
:1018580001FA02F213430360C1E7012393FAA3F3E9
:10186800B3FA83F303F1845303F584139B00002236
:101878001A60FFF7CBF90546022393FAA3F30A4B44
:101888001968022393FAA3F3B3FA83F303F01F034F
:10189800012202FA03F30B42A1D0FFF7B7F9401B6C
:1018A8000228E9D90320A2E100100240208190100B
:1018B800012292FAA2F2B2FA82F2BC4B13449B00C4
:1018C80000221A60FFF7A2F90546022393FAA3F251
:1018D80093FAA3F293FAA3F2B54A516A93FAA3F3DF
:1018E800B3FA83F303F01F03012202FA03F30B4256
:1018F80006D0FFF78BF9401B0228E6D9032076E1D2
:10190800236813F0040F00F0B380A94BDB6913F0D0
:10191800805F20D1A64BDA6942F08052DA61DB6938
:1019280003F080530193019B0125A24B1B6813F41C
:10193800807F12D0E368012B23D073BB03F180436F
:1019480003F504331A6A22F001021A621A6A22F0B5
:1019580004021A621AE00025E7E7964A136843F47E
:1019680080731360FFF752F90646924B1B6813F415
:10197800807FDFD1FFF74AF9801B6428F5D903205F
:1019880035E18B4A136A43F001031362E368002BC5
:1019980041D0FFF73BF906462BE0052B09D0844BD5
:1019A8001A6A22F001021A621A6A22F004021A6202
:1019B800ECE77F4B1A6A42F004021A621A6A42F094
:1019C80001021A62E2E77A4B196A022393FAA3F337
:1019D800B3FA83F303F01F03012202FA03F3194257
:1019E80045D1FFF713F9801B41F28833984200F282
:1019F800F980022393FAA3F293FAA3F3B3FA83F3D9
:101A08005B0943F00203022BDDD0022393FAA3F310
:101A1800674B596AD9E7FFF7F9F8064615E0644BB2
:101A2800196A022393FAA3F3B3FA83F303F01F03AB
:101A3800012202FA03F3194219D0FFF7E7F8801BD5
:101A480041F28833984200F2CF80022393FAA3F23E
:101A580093FAA3F3B3FA83F35B0943F00203022B6F
:101A6800DDD0022393FAA3F3514B596AD9E7B5BBEA
:101A7800E369002B00F0BA804D4A526802F00C026C
:101A8800082A00F09980022B2FD04FF0807393FA28
:101A9800A3F3B3FA83F303F1845303F584139B0090
:101AA80000221A60FFF7B2F804464FF0007393FA69
:101AB800A3F33F4B19684FF0007393FAA3F3B3FAFB
:101AC80083F303F01F03012202FA03F319426BD0D8
:101AD800FFF79CF8001B0228E7D9032087E0344A67
:101AE800D36923F08053D361C2E74FF0807393FA30
:101AF800A3F3B3FA83F303F1845303F584139B0030
:101B080000221A60FFF782F805464FF0007393FA37
:101B1800A3F3274B19684FF0007393FAA3F3B3FAB2
:101B280083F303F01F03012202FA03F3194206D0DC
:101B3800FFF76CF8401B0228E7D9032057E01C493F
:101B48004B6823F47413626A206A024313434B60A0
:101B58004FF0807393FAA3F3B3FA83F303F184533A
:101B680003F584139B0001221A60FFF74FF804461F
:101B78004FF0007393FAA3F30D4B19684FF00073FD
:101B880093FAA3F3B3FA83F303F01F03012202FAD3
:101B980003F3194206D1FFF739F8001B0228E7D9E9
:101BA800032024E0002022E0002020E02081901083
:101BB8000010024000700040012B1AD00F4B5B68E8
:101BC80003F48031226A914201D001200FE003F42E
:101BD8007013626A93420ED0012008E0012070471A
:101BE800012004E0032002E0032000E0002002B00E
:101BF80070BD0120FBE70020F9E700BF001002409C
:101C080010B4174B5C6804F00C03082B26D104F4BD
:101C180070124FF4701393FAA3F3B3FA83F322FA12
:101C280003F31049C85C0E4BDB6A03F00F030F2265
:101C380092FAA2F2B2FA82F2D3400B441A7C14F45C
:101C4800803F05D1084B03FB00F05DF8044B70475B
:101C5800064BB3FBF2F300FB03F0F6E70348F4E7A7
:101C680000100240285F000800093D0000127A00B9
:101C7800002800F0C18070B50446614B1B6803F072
:101C880007038B420CD25E4A136823F007030B4309
:101C98001360136803F007038B4201D0012070BD65
:101CA800236813F0020F06D0564A536823F0F00356
:101CB800A068034353600D46236813F0010F5AD000
:101CC8006368012B2DD0022B40D0022292FAA2F297
:101CD8004C4A1068022292FAA2F2B2FA82F202F098
:101CE8001F02012101FA02F2104200F087804549E3
:101CF8004A6822F0030213434B60FEF787FF06464B
:101D0800404B5B6803F00C036268B3EB820F32D080
:101D1800FEF77CFF801B41F288339842F0D90320FC
:101D2800BDE74FF4003292FAA2F2364A10684FF437
:101D3800003292FAA2F2B2FA82F202F01F020121F4
:101D480001FA02F20242D2D10120A8E74FF0007254
:101D580092FAA2F22B4A10684FF0007292FAA2F29D
:101D6800B2FA82F202F01F02012101FA02F21042D5
:101D7800BDD1012093E7224B1B6803F00703AB4258
:101D88000CD91F4A136823F007032B431360136809
:101D980003F00703AB4201D0012080E7236813F06A
:101DA800040F06D0174A536823F4E063E1680B4335
:101DB8005360236813F0080F07D0124A536823F4BE
:101DC8006053216943EAC1035360FFF719FF0D4BC4
:101DD8005B6803F0F003F02292FAA2F2B2FA82F200
:101DE800D340094AD35CD840084B1860084B1868A0
:101DF800FEF7CAFE002052E70120704701204EE797
:101E08000020024000100240485F0008080000203F
:101E180004000020F0B583B00446036813F4803F43
:101E280044D05F4BDB6913F0805F6ED15C4BDA699D
:101E380042F08052DA61DB6903F080530193019B21
:101E48000125584B1B6813F4807F60D0544B1B6AE4
:101E580013F4407321D0626802F440729A421CD095
:101E68004F48016A21F440764FF4803393FAA3F285
:101E7800B2FA82F24C4F3A4492004FF0010CC2F889
:101E880000C093FAA3F3B3FA83F33B449B00002208
:101E98001A60066211F0010F4DD1414A136A23F40A
:101EA800407361680B431362002D6FD1236813F0F0
:101EB800010F06D03A4A136B23F00303A1680B43C2
:101EC8001363236813F0200F06D0354A136B23F0F1
:101ED8001003E1680B431363236813F0800F06D0E7
:101EE8002F4AD36A23F4F87321690B43D36223681A
:101EF80013F4805F51D02A4A136B23F4807361690D
:101F08000B431363002003B0F0BD002599E7254A71
:101F1800136843F480731360FEF778FE0646214B7E
:101F28001B6813F4807F91D1FEF770FE801B642834
:101F3800F5D90320E7E7FEF769FE064614E0184BDB
:101F4800196A022393FAA3F3B3FA83F303F01F0386
:101F5800012202FA03F30B429FD1FEF757FE801BC2
:101F680041F28833984216D8022393FAA3F293FADF
:101F7800A3F3B3FA83F35B0943F00203022BDED029
:101F8800022393FAA3F3064B596ADAE7D36923F0DD
:101F98008053D3618AE70320B5E70020B3E700BF89
:101FA80000100240007000400081901030B4036AB5
:101FB80023F001030362036A4468826922F48032D1
:101FC80022F073020D682A4323F002038D682B4325
:101FD800184DA8420BD005F5A055A84207D005F525
:101FE8008065A84203D005F58065A84205D123F095
:101FF8000803CD682B4323F004030E4DA8420BD0F1
:1020080005F5A055A84207D005F58065A84203D07C
:1020180005F58065A84205D124F440754C692C4328
:102028008D692C43446082614A684263036230BC14
:10203800704700BF002C014030B4036A23F480735A
:102048000362036A4468C26922F4803222F0730290
:102058000D682A4323F400738D6843EA0523144D61
:10206800A8421DD0124DA8420BD005F5A055A84294
:1020780007D005F58065A84203D005F58065A8421C
:1020880007D124F440544D6944EA05148D6944EAA3
:1020980005144460C2614A68C263036230BC704779
:1020A80023F40063CD6843EA052323F48063D9E76A
:1020B800002C014030B4036A23F480530362026A9F
:1020C8004468C36923F0807323F4E6430D6843EA48
:1020D800052322F400528D6842EA05320D4DA842CC
:1020E8000BD005F5A055A84207D005F58065A84294
:1020F80003D005F58065A84204D124F480444D69D5
:1021080044EA85144460C3614B680364026230BCCE
:10211800704700BF002C014030B4036A23F48033B9
:102128000362036A4468426D22F4803222F070022E
:102138000D682A4323F400338D6843EA05430D4DA7
:10214800A8420BD005F5A055A84207D005F5806533
:10215800A84203D005F58065A84204D124F4803450
:102168004D6944EA0524446042654A688265036211
:1021780030BC7047002C014030B4036A23F480134C
:102188000362026A4468436D23F0807323F4E043DA
:102198000D6843EA052322F400128D6842EA0552CD
:1021A8000D4DA8420BD005F5A055A84207D005F55E
:1021B8008065A84203D005F58065A84204D124F4BF
:1021C80080244D6944EA8524446043654B68C365AF
:1021D800026230BC704700BF002C014010B4036A93
:1021E800046A24F001040462846924F0F00444EAD7
:1021F800021223F00A030B43826103625DF8044B69
:10220800704710B4036A23F0100303628469036AF9
:1022180024F4704444EA023223F0A00343EA011391
:10222800826103625DF8044B7047836823F0700392
:10223800194341F00701816070470000022380F8CC
:102248003D3002689168084B0B40062B06D0B3F569
:10225800803F03D0136843F001031360012380F823
:102268003D300020704700BF0700010070470000A4
:102278000368224A904206D0B0F1804F03D0A2F5FD
:102288009432904203D123F070034A6813431B4AE7
:10229800904212D0B0F1804F0FD0A2F59432904204
:1022A8000BD002F59E32904207D002F58062904230
:1022B80003D002F58062904203D123F44073CA68C8
:1022C800134323F080034A69134303608B68C36296
:1022D8000B688362094B98420BD003F5A0539842D0
:1022E80007D003F58063984203D003F580639842D2
:1022F80001D10B690363012343617047002C01403E
:10230800A8B110B5044690F83D305BB1022384F8BB
:102318003D30211D2068FFF7ABFF012384F83D30D5
:10232800002010BD80F83C3001F02EFDEEE70120C2
:102338007047A8B110B5044690F83D305BB1022350
:1023480084F83D30211D2068FFF792FF012384F8AF
:102358003D30002010BD80F83C30FFF787FFEEE7E6
:102368000120704730B4036A23F010030362036A44
:102378004468826922F0807222F4E6420D6842EADB
:10238800052223F020038D6843EA0513144DA84263
:102398001DD0134DA8420BD005F5A055A84207D073
:1023A80005F58065A84203D005F58065A84207D1E8
:1023B80024F440644D6944EA85048D6944EA85043F
:1023C800446082614A688263036230BC704723F0CC
:1023D8008003CD6843EA051323F04003D9E700BF23
:1023E800002C014038B590F83C30012B00F0928069
:1023F8000D460446012380F83C30022380F83D3026
:10240800142A1ED8DFE802F00B1D1D1D241D1D1DFA
:10241800381D1D1D4B1D1D1D5F1D1D1D72000068F3
:10242800FFF7C4FD2268936943F0080393612268AB
:10243800936923F0040393612268936929690B4324
:102448009361012384F83D30002084F83C0038BDB6
:102458000068FFF787FF2268936943F4006393617C
:102468002268936923F480639361226893692969D8
:1024780043EA01239361E4E70068FFF7DDFD226882
:10248800D36943F00803D3612268D36923F00403B6
:10249800D3612268D36929690B43D361D1E7006806
:1024A800FFF708FE2268D36943F40063D36122680A
:1024B800D36923F48063D3612268D369296943EA25
:1024C8000123D361BDE70068FFF726FE2268536D3C
:1024D80043F0080353652268536D23F004035365E2
:1024E8002268536D29690B435365AAE70068FFF713
:1024F80043FE2268536D43F4006353652268536DAD
:1025080023F4806353652268536D296943EA0123E4
:10251800536596E702209AE710B4846824F47F4450
:1025280042EA03230B43234383605DF8044B70475F
:1025380090F83C30012B64D010B50446012380F894
:102548003C30022380F83D30026890682E4B0340EF
:1025580093600B68402B4AD013D9602B3DD01ED90D
:10256800702B28D0B3F5005F30D1CB684A688968F2
:102578002068FFF7D1FF2268936843F48043936093
:1025880024E0102B06D004D9202B03D0302B01D007
:102598001CE0DBB919462068FFF747FE16E0502B10
:1025A80014D1CA6849682068FFF718FE50212068CE
:1025B800FFF73BFE0AE0CB684A6889682068FFF7A6
:1025C800ABFF2268936843F077039360012384F894
:1025D8003D30002084F83C0010BDCA684968206876
:1025E800FFF70FFE60212068FFF71FFEEEE7CA68BD
:1025F80049682068FFF7F2FD40212068FFF715FEC3
:10260800E4E70220704700BF8800FEFF10B401F025
:102618001F01012303FA01F4036A23EA0403036296
:10262800036A8A40134303625DF8044B7047000055
:1026380010B5044601220068FFF7E8FF2368114A35
:1026480093420BD002F5A052934207D002F5806264
:10265800934203D002F58062934203D15A6C42F44C
:1026680000425A6422689168074B0B40062B06D03B
:10267800B3F5803F03D0136843F0010313600020D3
:1026880010BD00BF002C01400700010090F83C304D
:10269800012B33D030B4012380F83C30022380F87A
:1026A8003D30026853689568154CA24221D023F04A
:1026B80070030C68234353600368114A93420AD09D
:1026C800B3F1804F07D0A2F59432934203D002F5BC
:1026D8009E32934204D125F080058A6815439D6097
:1026E800012380F83D30002380F83C30184630BC88
:1026F800704723F470034C682343D8E702207047DF
:10270800002C014090F83C30012B3BD010B4012341
:1027180080F83C30CB6823F440738A68134323F471
:1027280080634A68134323F400630A68134323F45D
:1027380080530A69134323F400534A69134323F46B
:1027480080438A6A134323F470238A6943EA024365
:1027580002680D4CA24207D05364002380F83C3035
:1027680018465DF8044B704723F470034C6A43EA3B
:10277800045323F08073CC69234323F00073096A60
:102788000B43E9E702207047002C0140054A918875
:10279800054B5963118899635188D963D2881A64A3
:1027A800704700BFA4010020002C0140034B40F2F9
:1027B800F3325A639A63DA631A647047002C014053
:1027C80008B5054B1B68012B02D0FFF7EFFF08BDCA
:1027D800FFF7DCFFFBE700BF8C02002070B588B074
:1027E800002403940494059406940794304B5A6982
:1027F80042F480025A615A6902F480020092009AF7
:102808005A6942F400325A615A6902F4003201925C
:10281800019A5A6942F480225A615B6903F4802361
:102828000293029B234D224638212846FEF73DFBA2
:1028380001260396204B0493059403A94FF090407A
:10284800FEF768FA0E2303931C4B0493059403A91F
:102858004FF09040FEF75EFA3823039304960594F0
:10286800069403A92846FEF755FA22462146062073
:10287800FEF7F8F90620FEF729FA22462146072036
:10288800FEF7F0F90720FEF721FA22462146082034
:10289800FEF7E8F90820FEF719FA22462146092032
:1028A800FEF7E0F90920FEF711FA08B070BD00BF85
:1028B8000010024000040048000031100000211000
:1028C80038B50D4C0D4B236040F20B236360002597
:1028D800A5600123E36025616561A561E561256265
:1028E8002046FEF71FFC29462046FEF70DFE294626
:1028F8002046FEF737FE38BDC000002000540040D7
:1029080030B589B000240494059406940794019482
:10291800029403940E4D0F4B2B6007236B60AC6041
:1029280041F28733EB602C61AC612846FFF7E8FC85
:102938004FF48053049304A92846FFF7F9FD019446
:10294800039401A92846FFF7A1FE09B030BD00BFD6
:10295800480100200004004030B59BB000241694C4
:102968001794189419941394149415940C940D9422
:102978000E940F941094119412942C22214601A8BD
:1029880003F0B8FA294D2A4B2B6007236B60AC6023
:1029980040F2F773EB602C616C61AC612846FFF77D
:1029A800AFFC4FF48053169316A92846FFF7C0FDD5
:1029B8002846FFF7BEFC13941494159413A92846CF
:1029C800FFF764FE60230C930D940E940F941094FB
:1029D8001194129422460CA92846FFF703FD0422FD
:1029E8000CA92846FFF7FEFC08220CA92846FFF789
:1029F800F9FC0C220CA92846FFF7F4FC0194029478
:102A08000394049405944FF4005306930794089490
:102A18004FF0007309930A940B9401A92846FFF715
:102A280071FE284601F0D6F91BB030BDF801002030
:102A3800002C014030B597B000240E940F941294E6
:102A48000794089409940A940B94019402940394AB
:102A580004940594069403230C934FF4A0230D9338
:102A68000123109310231193022513954FF48033FB
:102A780014934FF4E01315930CA8FEF79FFD0F2352
:102A88000793089509944FF480630A930B94294699
:102A980007A8FFF7EDF84FF48153019304940694C7
:102AA80001A8FFF7B7F917B030BD08B5FEF790F8E1
:102AB800FFF7C0FFFFF792FEFFF702FFFFF74CFF9B
:102AC800FFF71EFF00F000FF00F052FF6420FEF742
:102AD800A3F800F053FB00F0B1FB00F023FA01F07B
:102AE800B9F800F057FA00F04BFC00F021F8FFF7B6
:102AF80067FE00F01FFA00F041FAEEE70023064AED
:102B08001360064A1360064A1360064A1360064AB1
:102B18001360064A13607047240100205002002009
:102B28002C0100206002002098010020A400002051
:102B3800CC4B9B889BB2CC4A1380CC4A92ED005A6E
:102B4800CB4AD2ED007A35EE675ACA4A82ED005A6E
:102B5800C94AD2ED005AC94AD2ED007A75EEE75A51
:102B6800C74AC2ED005AC74A92ED006AC64AD2ED7A
:102B7800007A36EE676AC54A82ED006AC44AD2ED29
:102B8800003A65EE233AC34AC2ED003AC24A92EDD2
:102B9800004A25EE844AC14A82ED004AC04AD2ED75
:102BA800004A66EE244ABF4AC2ED004AB3F5876F71
:102BB80023D9BD4AD2ED007A65EE277ABB4A92ED59
:102BC800007A77EE877AC2ED007AB94AD2ED007AB8
:102BD80065EEA77AB74A92ED007A77EE877AC2ED6A
:102BE800007AB54AD2ED007A66EE277AB34A92EDBA
:102BF800007A77EE877AC2ED007AAC4A92ED007AD5
:102C0800DFEDAF7AB4EEE77AF1EE10FA01DDC2ED4E
:102C1800007AA64A92ED007ADFEDAA7AB4EEE77A56
:102C2800F1EE10FA01D5C2ED007AA24A92ED007ACF
:102C3800DFEDA37AB4EEE77AF1EE10FA01DDC2ED2A
:102C4800007A9C4A92ED007ADFED9E7AB4EEE77A3C
:102C5800F1EE10FA01D5C2ED007A984A92ED007AA9
:102C6800DFED977AB4EEE77AF1EE10FA01DDC2ED06
:102C7800007A924A92ED007ADFED927AB4EEE77A22
:102C8800F1EE10FA01D5C2ED007A8F4AD2ED006A52
:102C980075EE666A8D4AD2ED007A66EEA76A8C4AAE
:102CA800C2ED006A8B4A92ED007A35EEC77A8A4AFD
:102CB800D2ED007A27EE277A884A82ED007A884A90
:102CC800D2ED007A76EE677A864A92ED003A67EEA0
:102CD800837A854AC2ED007A744A92ED003A73EE1F
:102CE800833A76EEA36A814AC2ED006A714AD2ED50
:102CF800003A34EE234A37EE047A7D4A82ED007AB0
:102D08006E4A92ED004A74EE844A77EEA47A794AC4
:102D1800C2ED007ADFED6B4AF4EEE46AF1EE10FAE8
:102D280002D5724AC2ED004A704AD2ED004ADFED80
:102D3800646AF4EEE64AF1EE10FA01DDC2ED006ACB
:102D4800DFED606AB4EEE67AF1EE10FA02D5684A71
:102D5800C2ED006A664AD2ED006A9FED597AF4EE38
:102D6800C76AF1EE10FA01DD82ED007A9FED557A1F
:102D7800F4EEC77AF1EE10FA02D55E4A82ED007AD7
:102D88005C4A92ED007ADFED4E7AB4EEE77AF1EE26
:102D980010FA01DDC2ED007AB3F5E16F03D9324BC9
:102DA8004FF4E1621A80544B1B78042B37D12E4B19
:102DB8001B8807EE903AF8EEE77A4D4BD3ED003AD0
:102DC80077EEA36A494B93ED004A76EE844A494B65
:102DD80093ED007A74EE874A484BFCEEE44A14EE11
:102DE800902A1A8076EEC46A76EEC76AFCEEE66A26
:102DF80016EE902A5A8077EEE37A74EE276A76EE1A
:102E0800C76AFCEEE66A16EE902A9A8077EEC47AD4
:102E180077EE277AFCEEE77A17EE902ADA80384BBD
:102E280000221A6002E00133354A1360344B1B68F4
:102E3800032B67DC314A32F8131040F24B429142BF
:102E480004D82E4A40F24C4122F813102B4A32F88B
:102E58001320B2F5FA6FE6D9284A4FF4FA6122F83E
:102E68001310E0E7F00100203801002020010020C5
:102E7800B4010020580200208C010020B800002076
:102E8800900200203C01002040010020A800002002
:102E98000C01002090010020D00100203802002001
:102EA800BC0000204C020020340100202401002036
:102EB800E8010020500200206C0200202C010020B4
:102EC8000000C8430000C8C360020020C4010020FD
:102ED8009402002098010020B00000201801002072
:102EE800A400002028010020400200209C010020AE
:102EF800A00100209400002064020020A40100200A
:102F0800B8010020044B83ED005A044BC3ED005A6E
:102F1800034B83ED006A704760020020980100208F
:102F2800A4000020024B1B6800225A62704700BFB1
:102F38004801002008B50D4B19684A6A642303FB51
:102F480002F30B4A1288B3FBF2F307EE903AF8EE5D
:102F5800677A084BC3ED007A4B6A9A4200D308BDE2
:102F6800012220210448FDF7A0FFF8E748010020CE
:102F780044020020DC01002000040048034B1B68C9
:102F88005A6A034B1B889A42F8D3704748010020BD
:102F9800440200206F4B00221A606F4B1B889BB2C3
:102FA80040F2E45293420AD96B4B1B88A3F2E453D4
:102FB80007EE903AF8EEE77A664BC3ED007A664B77
:102FC8001B889BB240F2D35293420AD8624B1B88AB
:102FD800A3F2D45307EE903AF8EEE77A5D4BC3EDCF
:102FE800007A5E4B1A78012A71D05A4BD3ED006AE9
:102FF800B0EE087AC6EE877AC3ED007A584B002106
:103008001960554B5B889BB240F2E4518B420AD958
:10301800514B5B88A3F2E45307EE903AF8EEE77A57
:103028004F4BC3ED007A4C4B5B889BB240F2D351B7
:103038008B420AD8484B5B88A3F2D45307EE903AE8
:10304800F8EEE77A464BC3ED007A012A61D0444B8B
:10305800D3ED006AB0EE087AC6EE877AC3ED007A3F
:10306800404B00221A603C4B9B889BB2B3F57D7F96
:1030780023D3394BDB889BB240F2E45293420AD9FE
:10308800354BDB88A3F2E45307EE903AF8EEE77A83
:10309800344BC3ED007A304BDB889BB240F2D352FD
:1030A80093420AD82C4BDB88A3F2D45307EE903A0C
:1030B800F8EEE77A2B4BC3ED007A2A4BD3ED006A82
:1030C800B0EE087AC6EE877AC3ED007A7047264BD1
:1030D800D3ED007A254B93ED007A27EE877A1D4BC6
:1030E800D3ED007A77EEC77AC3ED007A9FED207AA8
:1030F800F4EEC77AF1EE10FA7FF777AF9FED1D7AFD
:10310800F4EEC77AF1EE10FA7FF56FAF002119607F
:103118006BE7194BD3ED007A144B93ED007A27EE49
:10312800877A0F4BD3ED007A77EEC77AC3ED007A32
:103138009FED0F7AF4EEC77AF1EE10FA87DD9FED76
:103148000D7AF4EEC77AF1EE10FA80D500221A60F3
:103158007DE700BFB4010020F001002068020020D4
:10316800B800002040010020EC01002030010020C0
:103178000080BA440080BC4444010020F0B585B00A
:103188004FF47A73029301230193294C009475221A
:10319800D0212848FEF7E2F82378682B01D005B043
:1031A800F0BD254C6B27277000236370214D4FF429
:1031B8007A76009602232246D0212846FEF710F898
:1031C800277001236370009602232246D0212846E7
:1031D800FEF706F81923237007236370009602236D
:1031E8002246D0212846FDF7FBFF1B232370082326
:1031F8006370009602232246D0212846FDF7F0FF8F
:103208001C23237010236370009602232246D021CA
:103218002846FDF7E5FF1A23237003236370009601
:1032280002232246D0212846FDF7DAFFB7E700BF80
:10323800BC010020C00000207402002010B584B03A
:10324800012210214248FDF730FE4FF4FA70FDF7D5
:10325800E3FC404B00221A6013E04FF47A730293A8
:10326800062301933C4B009301234322D0213B4882
:10327800FEF774F80320FDF7CFFC364A13680133D4
:103288001360344B1B68952BE7DD324B00221A6024
:1032980006E00320FDF7C0FC2E4A136801331360D3
:1032A8002C4B1B68B3F5FA6F4ADA4FF47A73029322
:1032B80006230193284C009401234322D021274858
:1032C800FEF74CF82378617841EA032109B2244BD0
:1032D8001980A378E27842EA032212B2214B1A80BD
:1032E8002079637943EA00231BB21F4803801F48F3
:1032F8000468214401601E480468224402601D4895
:103308000468234403601348046840F2CF70844281
:10331800BFD1194880FB01C4C917C1EBE411134C94
:10332800216080FB0241D217C2EBE11210490A600A
:1033380080FB0320DB17C3EBE0130E4A1360A8E7FA
:10334800002210210248FDF7B0FD04B010BD00BFF7
:1033580000040048B801002074020020C0000020CA
:10336800AC0000203E020020A000002088010020C0
:10337800C8010020B4000020D34D621000000000F6
:103388002DE9F04F2DED028B8BB0674B1B78012B8D
:1033980000F0E2804FF47A73029306230193634DA1
:1033A800009501234322D0216148FDF7D7FF2B78F0
:1033B800687840EA03205F4B1B68C01AAB78EC784A
:1033C80044EA03245C4B1B68E41A24B22B796D7918
:1033D80045EA0323594A1568ED1A2DB200B2FDF7E4
:1033E80041F84BA3D3E90023FDF7D0F9FDF754FBCF
:1033F800534B18802046FDF735F845A3D3E9002341
:10340800FDF7C4F9FDF748FB4E4B18802846FDF739
:1034180029F83FA3D3E90023FDF7B8F9FDF73CFBF2
:10342800494B1880464BB3F9004004F5FA739BB238
:10343800B3F57A7F1BD8454D2868FDF725F836A3E4
:10344800D3E90023FDF778F806460F462046FDF736
:1034580009F833A3D3E90023FDF76EF802460B46BB
:1034680030463946FCF7B2FEFDF73EFB2860354B87
:10347800B3F9004004F5FA739BB2B3F57A7F1BD811
:10348800334D2868FDF700F823A3D3E90023FDF79F
:1034980053F806460F462046FCF7E4FF20A3D3E97D
:1034A8000023FDF749F802460B4630463946FCF73B
:1034B8008DFEFDF719FB2860234BB3F9004004F596
:1034C800FA739BB2B3F57A7F1BD8224D2868FCF7B4
:1034D800DBFF11A3D3E90023FDF72EF806460F46BC
:1034E8002046FCF7BFFF0EA3D3E90023FDF724F81D
:1034F80002460B4630463946FCF768FEFDF7F4FAFB
:1035080028600BB0BDEC028BBDE8F08FAFF30080F4
:1035180000000000006050409A9999999999E93FF4
:103528009A9999999999C93F6802002074020020D4
:10353800C000002088010020C8010020B40000203D
:10354800AC0000203E020020A00000202001002046
:103558008C0100203C0100200A2302930E230193D2
:10356800C54F009701233B22D021C448FDF7F6FE42
:1035780038787C7844EA002424B2C14B1C80B8789F
:10358800FD7845EA00252DB2DFF83883A8F8005009
:103598003B797E7946EA032636B2BA4B1E803B7ADF
:1035A800787A40EA0320B84B1B68C01A00B2B74BC0
:1035B8001880BB7A97F80BA04AEA032AB44B1B6819
:1035C800AAEB030A0FFA8AFAB24BA3F800A03B7BD6
:1035D8007F7B47EA0323B04A1768FF1A3FB2AF4B15
:1035E8001F80FCF73FFF9CA3D3E90023FDF7CEF82B
:1035F800CDE90601AA4B1868FCF746FF02460B46C0
:10360800CDE90423DDE90601FCF796FFCDE90601C3
:10361800DFF8A8B2DBF80000FCF736FFDDE9062387
:10362800FCF7D4FDFDF760FA81465046FCF71AFF17
:1036380089A3D3E90023FDF7A9F802460B46DDE983
:103648000401FCF779FFCDE90401DFF874A2DAF888
:103658000000FCF719FFDDE90423FCF7B7FDFDF7CF
:1036680043FAFCF711FFCDE904013846FCF7FAFEEE
:1036780079A3D3E90023FDF789F8CDE90601894B41
:103688001868FCF701FFDDE90623FCF755FF41EC5C
:10369800100B00F061FE53EC102B8DED060BDDE9ED
:1036A8000401FCF749FFCDE908014846FCF7ECFEA8
:1036B800DDE90823FCF788FDFDF716FACBF80000D2
:1036C800FCF7E2FEDDE90623FCF736FF02460B466F
:1036D800DDE90401FCF77AFDFDF706FACAF80000F7
:1036E80005FB05F504FB045406FB0640FCF7BAFE8F
:1036F80041EC100B00F0ECFE51EC100BFDF7F4F967
:1037080007EE100A684B1860B8F9003083EAE372D4
:10371800A2EBE37207EE902AF8EEE77AB4EEE77AC6
:10372800F1EE10FA61DC564BB3F9003083EAE3722C
:10373800A2EBE37207EE902AF8EEE77A5A4A92ED86
:10374800007AF4EEC77AF1EE10FA68D4574BD3ED4D
:10375800008A574AD2ED007A78EEE78AC3ED008AEC
:10376800544B93ED008A544AD2ED007A38EE678ABA
:1037780083ED008A514C2068FCF786FE38A3D3E914
:103788000023FCF7D9FE06460F4618EE900AFCF710
:103798007BFE35A3D3E90023FCF7CEFE02460B4699
:1037A80030463946FCF712FDFDF79EF92060444C7F
:1037B8002068FCF769FE2AA3D3E90023FCF7BCFEC6
:1037C80006460F4618EE100AFCF75EFE26A3D3E95C
:1037D8000023FCF7B1FE02460B4630463946FCF79B
:1037E800F5FCFDF781F920601CE607EE903AF8EE4B
:1037F800E77AC7EE877A17EE900AFCF745FE41ECA8
:10380800100B00F009FE1AA3D3E9002351EC100BAA
:10381800FCF792FEFDF768F9244B186083E707EE82
:10382800903AF8EEE77AC7EE877A17EE900AFCF737
:103838002BFE41EC100B00F0EFFD0DA3D3E90023A4
:1038480051EC100BFCF778FEFDF74EF980F00040C4
:10385800184B18607AE700BF000000000060504075
:10386800789CA223B9FCEF3F00401CEBE2363A3FBC
:103878009850F11ADCA54C4074020020C0000020CA
:1038880066020020E601002088010020AC0000202C
:10389800C80100203E020020B4000020A000002043
:1038A80098000020D8010020CC0100209C000020B6
:1038B8001C0100201001002048020020EC0100201B
:1038C800440100208802002010B5184C0122202154
:1038D8002046FDF7EAFA012210212046FDF7E5FA15
:1038E800134B04221A70134B00221A70124B40F229
:1038F800F6721A80114B124A1A601249124B19605B
:10390800124A134B1A6000231248036012480160E0
:1039180012490A6012490B6012494FF08140086051
:1039280011490A60114A136010BD00BF0004004825
:1039380064020020680200204402002030010020B8
:10394800E17A64416666663F0C0100206F12033B12
:1039580034010020C4010020D0010020E80100202B
:10396800B0000020BC0000206C02002028010020CC
:1039780010B5734C2046FEF761FC7248FEF75EFCFA
:1039880000212046FEF754FE04212046FEF750FE93
:1039980008212046FEF74CFE0C212046FEF748FE83
:1039A800694B4FF47A725A639A63DA631A6440F681
:1039B800B830FDF731F90022644B1A70644B1A7065
:1039C800644B1A70644B1A70644B1A80644B1A80EB
:1039D800644B1A80002364490B6064490A80644977
:1039E8000A8064490A8064496448086064494FF061
:1039F8004040086063490B6063490B6063490B6092
:103A080063490B6063490B6063490B6063490B6052
:103A180063490B6063490B6063490A8063490A8004
:103A280063490A8063490A6063490A6063490A6016
:103A380063490B6063490B6063490B6063490B6022
:103A480063490B6063490B6063490B6063490B6012
:103A580063490B6063490B6063490B6063490B6002
:103A680063490B6063490B6063490B6063490B60F2
:103A780063490B6063490B6063490B6063490B60E2
:103A880063490B6063490B6063490B6063490B60D2
:103A980063490B6063490B60634B1A60634B1A60A0
:103AA800634B1A80634B1888634B1880B0F57A7F94
:103AB80036D907EE900AF8EE677A17EE900AFCF707
:103AC800E3FC1BA3D3E90023FCF760FE02460B4688
:103AD80000205A49FCF75AFEFDF706F8B7EE007ABF
:103AE80007EE900AC7EE277A554BC3ED007A17EE1A
:103AF800900AFCF7C9FC10A3D3E90023FCF71CFDCE
:103B0800FCF7F2FF4F4B18604F4C00222021204653
:103B1800FDF7CBF9002210212046FDF7C6F910BDAC
:103B2800474B4A4A1A60474B494A1A60ECE700BFBC
:103B38000000000080842E4111E7FAA146DF913F82
:103B4800F801002048010020002C01405C02002000
:103B5800650200209802002014010020E4010020E2
:103B68008A0200203C020020DC01002066020020BE
:103B780088020020E60100201C0100206666E6BFDE
:103B880048020020C0010020EC0100204401002070
:103B9800CC0100209C0000201001002070020020B1
:103BA8009401002054020020AC0000203E020020B6
:103BB800A000002088010020C8010020B4000020D7
:103BC80084020020E001002058020020900200201A
:103BD800A80000206002002098010020A400002016
:103BE80090010020240100209402002038020020C7
:103BF80050020020180100204C0200202C01002057
:103C0800400200209C010020A00100209400002018
:103C1800200100208C0100203C010020B40100207C
:103C2800B800002040010020B80100208C020020CC
:103C38003801002044020020AE0000200000F03FC0
:103C480098000020D8010020000400486F12833A31
:103C5800A968923708B5244B9B889BB240F21A4258
:103C6800934214D8204BDB889BB240F2C572934232
:103C78000DD91D4B9B889BB240F21A42934206D83D
:103C8800194BDB889BB240F2C572934226D8164B7B
:103C98009B889BB240F21A4293421ED8124B9B88D3
:103CA8009BB240F2BA32934217D90F4BDB889BB2D2
:103CB80040F2F232934210D80B4B9B889BB240F2F1
:103CC8001A42934209D8084BDB889BB240F2F23281
:103CD800934202D8054B00221A6008BDFEF70EFF7A
:103CE800024B01221A60D2E7F00100208C0200206A
:103CF80082B00A4B9A6942F001029A619A6902F00D
:103D080001020092009ADA6942F08052DA61DB69B6
:103D180003F080530193019B02B0704700100240EA
:103D280010B588B000230393049305930693079373
:103D38000268124B9A4201D008B010BD104C63695A
:103D480043F480236361636903F480230193019B37
:103D5800C023039312230493032306930423079396
:103D680003A90848FCF7D6FFE36943F40013E361AD
:103D7800E36903F400130293029BDDE7005400405B
:103D8800001002400004004882B003680E4A9342C3
:103D980004D00E4A93420CD002B070470C4B9A697B
:103DA80042F400629A619B6903F400630093009BEC
:103DB800F2E7074BDA6942F00202DA61DB6903F0E5
:103DC80002030193019BE7E7002C01400004004037
:103DD8000010024010B586B00023019302930393AC
:103DE800049305930268154B9A4201D006B010BDA2
:103DF80003F564435A6942F400325A615B6903F47B
:103E080000330093009B4FF4E06301930224029473
:103E18000623059301A94FF09040FCF77BFF4FF470
:103E28000063019302940023039304930B230593E7
:103E380001A94FF09040FCF76DFFD7E7002C014037
:103E48007047FEE7FEE7FEE7FEE7704770477047FA
:103E580008B5FCF7CFFE08BD08B5434B1B685B6A85
:103E68009BB2424A1380424B1B78BBB1404B1B7834
:103E7800DBB2012B28D03F4B1B78DBB2012B46D09D
:103E88003D4B1B78DBB2012B50D03C4B1B78DBB28F
:103E9800012B5AD00120FDF70FF808BD01214FF082
:103EA8009040FCF7FBFF0128E0D10123304A137052
:103EB800304A1370304A1370304A13702B4B1B88EA
:103EC8009BB22F4A1380E5E7294B00221A70274B33
:103ED8001B889BB22B4A13801388294A12889B1A85
:103EE800002B08DB274B1B88254A12889B1A9BB29C
:103EF800254A5380BFE7234B1B88214A12889B1A07
:103F08009BB203F2F6739BB21F4A5380B3E70221B8
:103F18004FF09040FCF7C2FF0028B1D1154B0022AA
:103F28001A70194A53889BB21380A9E704214FF0ED
:103F38009040FCF7B3FF0028A7D10F4B00221A705E
:103F4800114A53889BB293809FE708214FF0904015
:103F5800FCF7A4FF00289DD1084B00221A700A4ADA
:103F680053889BB2D38095E7F80100203C020020DB
:103F78005C02002065020020980200201401002045
:103F8800E40100208A020020F001002008B5384B27
:103F98001B685B6A9BB2374A1380374B1B78DBB2CE
:103FA800012B12D0354B1B78DBB2012B33D0344BAD
:103FB8001B78DBB2012B3DD0324B1B78DBB2012BD7
:103FC80047D00220FCF778FF08BD02214FF090404F
:103FD800FCF764FF0028E5D1274B00221A70254B17
:103FE8001B88294A12889B1A002B08DB214B1B8847
:103FF800254A12889B1A9BB2244A1380D2E71D4B8C
:104008001B88214A12889B1A9BB203F2F6739BB253
:104018001E4A1380C6E701214FF09040FCF73EFF8F
:104028000028C4D1154B00221A70184A13889BB275
:104038005380BCE704214FF09040FCF72FFF002885
:10404800BAD10F4B00221A70104A13889BB2938082
:10405800B2E708214FF09040FCF720FF0028B0D1CC
:10406800084B00221A70094A13889BB2D380A8E72C
:10407800F80100208A020020650200205C0200206E
:104088009802002014010020E4010020F001002023
:1040980008B5384B1B685B6A9BB2374A1380374BAD
:1040A8001B78DBB2012B12D0354B1B78DBB2012B0E
:1040B80033D0344B1B78DBB2012B3DD0324B1B780D
:1040C800DBB2012B47D00420FCF7F6FE08BD042123
:1040D8004FF09040FCF7E2FE0028E5D1274B002284
:1040E8001A70254B1B88294A12889B1A002B08DB5B
:1040F800214B1B88254A12889B1A9BB2244A93801D
:10410800D2E71D4B1B88214A12889B1A9BB203F2E7
:10411800F6739BB21E4A9380C6E701214FF0904088
:10412800FCF7BCFE0028C4D1154B00221A70184AAF
:1041380093889BB25380BCE702214FF09040FCF774
:10414800ADFE0028BAD10F4B00221A70104A93888E
:104158009BB21380B2E708214FF09040FCF79EFE17
:104168000028B0D1084B00221A70094A93889BB2E4
:10417800D380A8E7F80100208A02002098020020D6
:104188005C0200206502002014010020E4010020E8
:10419800F001002008B5384B1B685B6A9BB2374AB0
:1041A8001380374B1B78DBB2012B12D0354B1B78B1
:1041B800DBB2012B33D0344B1B78DBB2012B3DD063
:1041C800324B1B78DBB2012B47D00820FCF774FE7A
:1041D80008BD08214FF09040FCF760FE0028E5D1AB
:1041E800274B00221A70254B1B88294A12889B1AD4
:1041F800002B08DB214B1B88254A12889B1A9BB28F
:10420800244AD380D2E71D4B1B88214A12889B1A67
:104218009BB203F2F6739BB21E4AD380C6E7012114
:104228004FF09040FCF73AFE0028C4D1154B00220D
:104238001A70184AD3889BB25380BCE702214FF00A
:104248009040FCF72BFE0028BAD10F4B00221A70C1
:10425800104AD3889BB21380B2E704214FF09040F4
:10426800FCF71CFE0028B0D1084B00221A70094A3E
:10427800D3889BB29380A8E7F80100208A02002027
:10428800140100205C020020650200209802002032
:10429800E4010020F00100201549D1F8883043F4EA
:1042A8007003C1F88830134B1A6842F001021A6093
:1042B8005868114A02405A601A6822F0847222F43F
:1042C80080321A601A6822F480221A605A6822F42E
:1042D800FE025A60DA6A22F00F02DA62186B074AA5
:1042E80002401A6300229A604FF000638B607047A7
:1042F80000ED00E0001002400CC07FF8CCFC00FF8D
:10430800DFF834D0002103E00C4B5B5843500431F4
:104318000B480C4B42189A42F6D30B4A02E0002392
:1043280042F8043B094B9A42F9D3FFF7B5FF01F075
:10433800BDFDFEF7BAFBFEE7003000205061000823
:104348000000002074000020740000209C0200205F
:10435800FEE700000000000000B551EC100B2C4AED
:1043680021F00043934285B027DD2A4A934209DDB4
:1043780010EE102A0B46FBF727FF41EC100B05B097
:104388005DF804FB684600F047FB00F003000128D5
:104398001FD0022830D028B39DED021B9DED000BE5
:1043A80000F02EFE53EC102B10EE100A03F1004122
:1043B80041EC100B05B05DF804FB00209FED121BCB
:1043C80001F06EFB51EC100B41EC100B05B05DF8E1
:1043D80004FB9DED021B9DED000B00F011FE51EC5E
:1043E800100BCAE701209DED021B9DED000B01F0AB
:1043F80057FB51EC100BC0E701209DED021B9DED12
:10440800000B01F04DFBCDE70000000000000000AC
:10441800FB21E93FFFFFEF7F30B52DED048BB0EEB8
:10442800408AF0EE608A264C8BB000F0ADF894F923
:104438000030B0EE409AF0EE609A01332ED053EC83
:10444800182B51EC180BFCF711FB054630BBB0EEEE
:10445800480AF0EE680A01F0EDFB0022194B51EC16
:10446800100BFCF7F9FAC8B1174B18480895012248
:10447800CDE900238DED048B8DED028B01F070FCEE
:1044880094F90030022B8DED060B0FD0684601F031
:1044980063FC58B1089B73B99DED069BB0EE490AC1
:1044A800F0EE690A0BB0BDEC048B30BD01F0F8FCEE
:1044B80021230360EEE701F0F3FC089B0360EBE7C0
:1044C8000C0000200000F03F605F0008645F0008F7
:1044D8002DE9F0432DED028B8BB055EC104B00F01D
:1044E800C5FC274BB0EE408AF0EE608A93F9006075
:1044F800731C12D022462B4620462946FCF7B6FAF2
:10450800074650B94FF000084FF0000920462946E9
:1045180042464B46FCF782FA40B9B0EE480AF0EE44
:10452800680A0BB0BDEC028BBDE8F0830122154B85
:1045380008970092CDE90445CDE90245019396B16B
:1045480042464B4640464946FCF720F9022ECDE943
:1045580006010AD101F0A4FC21230360089B53B98A
:104568009DED068BD9E7CDE90689684601F0F4FB95
:104578000028F3D1EEE701F093FC089B0360EFE716
:104588000C000020685F00082DE9F04F55EC104B37
:10459800B74B25F000479F4287B017DD07F140472A
:1045A80010EE103A07F580173B432BD010EE102A77
:1045B8002B4620462946FBF707FE02460B46FCF72A
:1045C800E5F841EC100B07B0BDE8F08FA94B9F420E
:1045D8002E4633DCB7F1795F80F2548188A3D3E9A2
:1045E800002310EE100A2946FBF7F0FD0022A24B2B
:1045F800FCF732FA10B32046294641EC100B07B0FD
:10460800BDE8F08F10EE100A7FA3D3E900232946F6
:10461800FBF792FF7EA3D3E9002306460F46204608
:104628002946FBF789FF02460B4630463946FBF719
:10463800CDFD41EC100B07B0BDE8F08F45EC104BF9
:1046480001F0F8FA002053EC102B8B49FBF7BCFD66
:1046580000228A4BFBF770FF6FA3D3E900230446BF
:104668000D46FBF769FF6EA3D3E90023FBF7AEFD08
:1046780022462B46FBF760FF6BA3D3E90023FBF729
:10468800A3FD22462B46FBF757FF69A3D3E9002376
:10469800FBF79CFD22462B46FBF74EFF66A3D3E9AA
:1046A8000023FBF791FD22462B46FBF745FF64A349
:1046B800D3E90023FBF78AFD22462B46FBF73CFF94
:1046C80061A3D3E90023CDE9000120462946FBF781
:1046D80033FF5FA3D3E90023FBF776FD22462B4681
:1046E800FBF72AFF5CA3D3E90023FBF76FFD224603
:1046F8002B46FBF721FF5AA3D3E90023FBF764FD00
:1047080022462B46FBF718FF5B4B0022FBF75EFDAA
:1047180045EC104B80468946CDE9028900F0A6FB9E
:10472800574B9F425BEC10AB00F3238110EE102A2D
:1047380010EE100A5B465946FBF748FDDDE90223F7
:10474800CDE90401DDE90001FCF720F802460B463B
:10475800DDE90401FBF7F0FE4FF00008CDE90001A8
:1047680042465B4640465946FBF7E6FE02460B4684
:1047780020462946FBF728FD424604460D465B467F
:1047880050465946FBF722FD02460B46204629466D
:10479800FBF7FCFF02460B46FBF718FD02460B46EB
:1047A8001BA1D1E90001FBF70FFD02460B46DDE92D
:1047B8000001FBF709FD424604460D465B464046AC
:1047C8005946FBF703FD02460B4627A1D1E9000134
:1047D800FBF7FAFC02460B4620462946FBF7F4FC99
:1047E80002460B4620A1D1E90001FBF7EDFC002EA3
:1047F8003FF7E7AE01F100431946E2E6AFF3008068
:104808009C7500883CE4377E182D4454FB21F93F01
:10481800075C143326A6913C09F7FD0DE13D023FE4
:1048280088B20175E0EF493F3B8F68B52882A43F05
:104838005544880E55C1C93F7D6FEB0312D6D43F4E
:10484800555555555555C53F82922EB1C5B8B33FFC
:1048580059018D1B6C06E63FC88A599CE52A004021
:104868004B2D8A1C273A0340182D4454FB21E93F5D
:10487800FFFFEF3FFFFFDF3F0000F03F0000E03F9A
:104888003233EF3F10EE102A10EE100A2B4629465D
:10489800FBF752FE4BA3D3E9002306460F46FBF76E
:1048A8004BFE4AA3D3E90023FBF790FC32463B4674
:1048B800FBF742FE47A3D3E90023FBF785FC32460A
:1048C8003B46FBF739FE45A3D3E90023FBF77EFC03
:1048D80032463B46FBF730FE42A3D3E90023FBF701
:1048E80073FC32463B46FBF727FE40A3D3E900237F
:1048F800FBF76CFC32463B46FBF71EFE3DA3D3E9B3
:1049080000238046894630463946FBF715FE3BA30F
:10491800D3E90023FBF758FC32463B46FBF70CFE75
:1049280038A3D3E90023FBF751FC32463B46FBF79B
:1049380003FE36A3D3E90023FBF746FC32463B4689
:10494800FBF7FAFD00221E4BFBF740FC02460B4624
:1049580040464946FBF71AFF22462B46FBF7ECFD7B
:1049680022462B46FBF732FC41EC100B07B0BDE8A2
:10497800F08F42464B46DDE90001FBF707FF524640
:104988005B46FBF7D9FD52465B46FBF71FFC024628
:104998000B46FBF71BFC06A3D3E90023FBF714FC2B
:1049A80002460B4604A1D1E90001FBF70DFC1EE706
:1049B800075C143326A6913C182D4454FB21F93F7B
:1049C8000000F03F09F7FD0DE13D023F88B2017597
:1049D800E0EF493F3B8F68B52882A43F5544880ED5
:1049E80055C1C93F7D6FEB0312D6D43F5555555578
:1049F8005555C53F82922EB1C5B8B33F59018D1B9D
:104A08006C06E63FC88A599CE52A00404B2D8A1C53
:104A1800273A0340000000002DE9F04753EC102B23
:104A2800BF4923F000478F4290B040F39380BD49BF
:104A38008F421C46824629DC002C194610EE100ACB
:104A4800ADA3D3E9002340F39080FBF7BDFBB64B41
:104A58009F4204460D4600F07381A9A3D3E90023C1
:104A6800FBF7B2FB02460B46CAE90023204629465B
:104A7800FBF7AAFBA2A3D3E90023FBF7A5FB0125BB
:104A8800CAE90201284610B0BDE8F087A7498F425D
:104A980040F38A80A6498F4200F320813D15A5F294
:104AA800164510EE100AA7EB055116460F46FBF700
:104AB800F3FFFBF7D7FC8046894642464B46304613
:104AC8003946CDE90A89FBF77FFB0022994BFBF7B2
:104AD80033FD89468046FBF7DFFFFBF7C3FC06463C
:104AE8000F4632463B4640464946CDE90C67FBF740
:104AF8006BFB00228F4BFBF71FFD00220023CDE943
:104B08000E01FBF781FF002800F065810023304685
:104B180039460022FBF778FF002814BF012302233F
:104B2800854A019202212A4600910AA8514600F0BE
:104B3800ABFB002C054614DADAF80420DAF80C305E
:104B480002F1004203F100434542CAF80420CAF8C2
:104B58000C3006E080ED000B00250024C0E902457A
:104B68000025284610B0BDE8F087FBF72FFB6E4BF9
:104B78009F4204460D4600F0108161A3D3E900234B
:104B8800FBF724FB02460B46CAE9002329462046C8
:104B9800FBF71AFB5AA3D3E90023FBF717FB4FF0E7
:104BA800FF35CAE90201DCE701F044F859EC108B43
:104BB80010EE100A54A3D3E900234946FBF7BCFCC6
:104BC80000225E4BFBF702FBFBF766FF0546FBF78F
:104BD80049FC49A3D3E90023CDE90601FBF7ACFC66
:104BE80002460B4640464946FBF7EEFA44A3D3E992
:104BF800002380468946DDE90601CDE90289FBF7F5
:104C08009BFC1F2D02460B46CDE9042340F3B580DB
:104C1800DDE90423DDE90201FBF7D6FA804689467F
:104C28003F15C9F30A53FB1A102B40F3B38038A37E
:104C3800D3E90023DDE90601FBF77EFC80468946BF
:104C480002460B46DDE90201FBF7BEFA02460B46B7
:104C5800DDE90201CDE90823FBF7B6FA42464B46E7
:104C6800FBF7B2FA2CA3D3E9002380468946DDE995
:104C78000601FBF761FC42464B46FBF7A5FA0B46DB
:104C8800CDE904010246DDE90801FBF79DFAC1F30D
:104C98000A53FF1A312F8046894600F39E809DED06
:104CA800087BCAE900898DED027B42464B46DDE967
:104CB8000201FBF789FADDE90423FBF785FA002CEA
:104CC800CAE90201BFF64DAF09F1004401F1004302
:104CD8006D42CAE90084CAE9020342E710EE100AED
:104CE8001946FBF771FA0025CAE90201CAE9000171
:104CF80037E700BFAFF3008000004054FB21F93FC5
:104D08003163621A61B4D03D83C8C96D305FE43F36
:104D18000000601A61B4D03D7370032E8A19A33B5A
:104D2800FB21E93F7BD90240FB21F93FFB213941B7
:104D3800FFFFEF7F00007041F05F00080000E03FD8
:104D480041A3D3E90023FBF73FFA41A3D3E90023AA
:104D58000D460446FBF738FA02460B46CAE900231B
:104D680029462046FBF730FA39A3D3E90023FBF79D
:104D78002BFA0125CAE90201F3E640464946FBF74A
:104D880023FA394B6A1E804653F82230BB428946C3
:104D98003FF446AFCAE9008987E72BA3D3E900238C
:104DA800FBF714FA2AA3D3E900230D460446FBF7C0
:104DB8000DFA02460B46CAE9002329462046FBF7AE
:104DC80003FA23A3D3E90023FBF700FA4FF0FF35DA
:104DD800CAE90201C5E60323A2E61FA3D3E900231B
:104DE800DDE90601FBF7A8FB06460F4602460B461F
:104DF800DDE90801FBF7E8F98046894602460B46DB
:104E0800DDE90801CDE90289FBF7DEF932463B46C8
:104E1800FBF7DAF912A3D3E9002306460F46DDE9CA
:104E28000601FBF789FB32463B46FBF7CDF9024604
:104E38000B4640464946CDE90423FBF7C5F98046B1
:104E48008946A7E7AFF300800000601A61B4D03D3F
:104E58007370032E8A19A33B0000002E8A19A33B06
:104E6800C14920259A837B39705F00082DE9F041FC
:104E7800624A57EC106BBA4300F09580002F3B460E
:104E880010EE101A344654DD3F1500F0AF80C3F31E
:104E98001303A7F2FF3743F48013E20FF90702EB7D
:104EA80043034FEA440503D5ED0F05EB4303A50083
:104EB80000267F10B44616224FF400110CEB0100B7
:104EC80098424FEAD5744FEA450503DC1B1A00EBFC
:104ED800010C0E44013A04EB43034FEA5101EDD1B2
:104EE8001046964620244FF0004209E052D05B005D
:104EF800013C03EBD5734FEA52024FEA450536D021
:104F0800634502EB0E01F1DD002901EB020E0ADB1D
:104F1800E046A3EB0C03A94288BF03F1FF336D1AE7
:104F28001044C446E3E7BEF1000FF1DB0CF10108C1
:104F3800EFE727F0004232432AD0002F49D1CA0AAE
:104F4800153B4905002AFAD012F4801001D050E030
:104F580020465200D50200F10104F9D5C4F120051C
:104F680001FA04F4E9401F1A41EA02038FE72B43D0
:104F780029D144087110F30701F17F5101F500119F
:104F880048BF44F0004401EB0753224643EC102B82
:104F9800BDE8F081A942AAD8002901EB020EC2DBC4
:104FA80098460023BBE710EE102A3B4610EE100A85
:104FB8003946FBF7C1FA32463B46FBF707F941ECA5
:104FC800100BBDE8F081421C16BF421C0136540884
:104FD800D0E710EE102A30463946FBF7F5F80246BE
:104FE8000B46FBF7D3FB41EC100BD1E71A463B46C7
:104FF800AAE70C4620254FF0FF30B3E70000F07F0A
:105008002DE9F04F57EC106B2DED028BB0EE418A75
:10501800F0EE618A27F00049B9F1795F83B072DA5E
:1050280010EE100A3946FBF737FD002800F0ED8036
:1050380032463B4630463946FBF77EFA7CA3D3E935
:10504800002304460D46FBF777FA7BA3D3E9002338
:10505800FBF7BCF822462B46FBF76EFA78A3D3E998
:105068000023FBF7B1F822462B46FBF765FA76A337
:10507800D3E90023FBF7AAF822462B46FBF75CFA94
:1050880073A3D3E90023FBF79FF822462B46FBF7CF
:1050980053FA71A3D3E90023FBF798F822462B466D
:1050A800FBF74AFA82468B460022714B2046294676
:1050B800FBF742FA5246804689465B462046294617
:1050C800FBF73AFA53EC182B04460D46304639469E
:1050D800FBF732FA02460B4620462946FBF774F8DE
:1050E80002460B4640464946FBF76EF802460B4619
:1050F80000206049FBF768F841EC100B03B0BDECE9
:10510800028BBDE8F08F10EE102A10EE100A3B4615
:105118003946FBF711FA46A3D3E9002304460D46A6
:10512800FBF70AFA44A3D3E90023FBF74FF822461A
:105138002B46FBF701FA42A3D3E90023FBF744F817
:1051480022462B46FBF7F8F93FA3D3E90023FBF7E8
:105158003DF822462B46FBF7EFF93DA3D3E90023A0
:10516800FBF732F822462B46FBF7E6F93AA3D3E9D8
:105178000023FBF72BF82B462246FBF7DDF93E4BC5
:10518800994582468B468FDD3C4B994544DC00228D
:10519800A9F500130020374990469946FBF714F803
:1051A800CDE900010022324B20462946FBF7C4F91D
:1051B80042464B46FBF708F85246804689465B460E
:1051C80020462946FBF7B8F953EC182B04460D4640
:1051D80030463946FBF7B0F902460B4620462946C9
:1051E800FAF7F2FF02460B4640464946FAF7ECFF4B
:1051F80002460B46DDE90001FAF7E6FF41EC100B29
:1052080003B0BDEC028BBDE8F08F9FED150B03B02A
:10521800BDEC028BBDE8F08F9FED137B4FF00008CB
:105228008DED007BDFF85890BCE700BFAFF300803E
:10523800D43888BEE9FAA8BDC4B1B4BD9EEE213EFB
:10524800AD529C804F7E923E9015CB19A001FA3E3C
:105258007751C1166CC1563F4C5555555555A53F0C
:10526800000000000000F03F000000000000E73FE1
:105278000000E03F0000F03F3233D33F0000E93F39
:105288000000D23F000000002DE9F04FADF5197D78
:10529800C14CA29EC14D54F826600793D41E85FBCD
:1052A8000475E417C4EBA50424EAE4741D46631CE2
:1052B800A3EB8303013D02EBC30305937319049623
:1052C8000994019503900B91A4EB05071AD43B446C
:1052D800002400255E1C0DF18008DDF88C9208E0A2
:1052E80059F82700FBF7BEF80137B742E8E8020192
:1052F80008D0002FF4DA013720462946B742E8E8FB
:105308000201F6D1049B002B079B4FEAC3030293CB
:105318002ADB039A20A902EB030801EB0309049B8B
:1053280072AA02EBC30B0DF5E07A019B002B4FF03C
:1053380000064FF0000711DB039C4D4675E9022378
:10534800F4E80201FBF7F8F802460B463046394606
:10535800FAF73CFF444506460F46EFD1EAE80267F4
:10536800DA4509F10809E0D1DDE90204049920448D
:105378008B0082460BA8A3F10802C31808930CAB54
:1053880013440A938B4698AB03EBCB03BBF1000F96
:1053980053E9284529DD70AB03EBCB080DF1300943
:1053A80000227F4B20462946FBF7C6F8FBF774FB23
:1053B800FBF758F800227B4B06460F46FBF7BCF874
:1053C80002460B4620462946FAF7FEFEFBF764FB29
:1053D80078E9022349F8040B39463046FAF7F6FE15
:1053E80070AB984504460D46DAD1DDF8149045ECCB
:1053F800104B484600F0BCFC55EC104B00224FF017
:105408007F5310EE100A2946FBF796F841EC100B73
:1054180000F01AFC002251EC100B634BFBF78CF8E0
:1054280002460B4620462946FAF7CEFE0D460446AC
:10543800FBF732FB8046FBF715F80B460246294678
:105448002046FAF7C1FE4B46002B06460F4640F3AE
:10545800E0800BF1FF320CA9C9F1180351F8225072
:1054680045FA03F101FA03F30CA8EB1A40F82230CD
:10547800C9F11705884443FA05F5002D2CDDBBF169
:10548800000F08F1010840F386820C9C002C40F0C4
:10549800A680BBF1010F0AD00CA9012251F8044FD4
:1054A800531C002C40F09D809B451A46F6D1059B65
:1054B800002B0EDD012B00F0D880022B09D10BF157
:1054C800FF320CAB0CA953F82230C3F3150341F893
:1054D8002230022D00F0AE800022002330463946EB
:1054E800FBF792FA002800F05882049B0BF1FF3971
:1054F8004B4510DC0BF180430CAA013B089802EBEA
:105508008303002253F80419834242EA0102F9D1C5
:10551800002A40F0B580049B0CAA013B52F82330C6
:10552800002B40F0A0800A9A012352F80419013395
:105538000029FAD05B440BF10109994506934BDC2D
:10554800099A079909EB020801EB0B0508F1804855
:1055580002EB030BA39B08F1FF3803EB880870AB41
:1055680003EBC909A39B20A903EB8B0301EBC5053A
:10557800029358F8040FFAF775FF0B460199024693
:10558800002905F1080BC5E900234FF000064FF08C
:1055980000071BDB039C0BE038610008ABAAAA2AB2
:1055A8000000703E000070410000204075E90223B1
:1055B800F4E80201FAF7C0FF02460B4630463946C6
:1055C800FAF704FE544506460F46EFD1029B98456C
:1055D800E9E802675D46CCD1DDF818B0D3E60123CF
:1055E80000220CA9C4F180749B4541F822400EDDCD
:1055F80051F8232001EB8B0001EB83036FF07F410F
:1056080000E01A688A1A43F8042B8342F9D101246E
:105618004DE706D10BF1FF330CAA52F82350ED15D4
:105628002BE700227E4BFBF70DFA002840F0A981FA
:10563800054651E732463B4600207A49FAF7C4FD51
:1056480006460F46002C3FF447AF05989FED700BB8
:1056580000F08EFB3046394653EC102BFAF7B4FDB8
:1056680006460F4638E7012364E70BF1FF320CAB1F
:105678000CA953F82230C3F3160341F8223028E767
:105688000CAB059A53F82930183ACDE906850592EE
:105698006BB909F18043013B0CA901EB830353F873
:1056A800041909F1FF39183A0029F8D0059205982C
:1056B8009FED570B00F05CFBB9F1000F55EC104B58
:1056C800C0F2C9814FEAC90370AA02EB0308089324
:1056D8000CAB03EB8906DFF850B14FF0000A08F174
:1056E8000807043656F8040DFAF7BCFE22462B4686
:1056F800FAF722FF5B4667E902015246204629462F
:10570800FAF71AFF0CAB9E4204460D46EAD148ABA5
:1057180003930193CDF8149009F10103DDF810907B
:105728000293C3464FF0000AB9F1000FC0F230816E
:10573800DFF8F8805D4638A3D3E900230026002768
:10574800002403E0544510DCF8E80223F5E80201E0
:10575800FAF7F2FE02460B4630463946FAF736FDAE
:105768000134A14506460F46ECDA019BE3E80267DF
:105778000193029B0AF1010A9A45ABF1080BD3D1B8
:10578800A29BDDF81490032B39D8DFE813F0DF0073
:1057980006000600530048AB0393B9F1000F4FF021
:1057A80000004FF0000109DB039D05EBC904083434
:1057B80074E90223FAF70AFDA542F9D1079B002BE9
:1057C80040F027810B9BC3E900010B460399024671
:1057D800D1E90001FAF7F8FCB9F1000F0CDD4AAD88
:1057E80001240134F5E80223FAF7F0FCA145F8DAC0
:1057F800079B002B40F01D810B9BC3E90201069B10
:1058080003F007000DF5197DBDE8F08FAFF30080B8
:10581800000000000000F03F00000040FB21F93FBD
:105828000000E03F0000F03F0000703E006100080B
:1058380048AB0393B9F1000F40F32981039ACDF8DF
:1058480010904FEAC9030193D318D3E900AB09F1CB
:105858000053013B02EBC9080293914678E90267BD
:1058680052465B4630463946FAF7B0FC04460D46C8
:1058780002460B4630463946FAF7A6FC52465B46C6
:10588800FAF7A4FCC145A246AB46C8E90201C8E93B
:105898000045E3D1DDF81090B9F1010F40F3F7802E
:1058A800019B039A02991344C900D3E9006701F1E7
:1058B800080A019192440DF5947B7AE902893246EF
:1058C8003B4640464946FAF781FC04460D460246E7
:1058D8000B4640464946FAF777FC32463B46FAF70C
:1058E80075FCD34526462F46CAE90201CAE9004598
:1058F800E3D1019C039B1034002000211C4403F1D8
:10590800100574E90223FAF761FCA542F9D1039C5A
:10591800079ED4E90023D4E90245002E00F08D80CB
:1059280003F1004701F100430B99C1E90403069B09
:105938002646944605F1004403F00700C1E900C774
:10594800C1E902640DF5197DBDE8F08F089C039D3F
:105958000834002000212C4474E90223FAF736FCAD
:10596800A542F9D1079B13B101F1004319460B9BDE
:10597800C3E90001069B03F007000DF5197DBDE89A
:10598800F08FBBF1000F08F1010876DD02257CE5F8
:1059980000260027E9E6002489E5CDE90685059D6E
:1059A80047EC106B684200F0E3F957EC106B0022EB
:1059B800384B10EE100A3946FBF744F800B30022C2
:1059C800354B30463946FAF7B7FDFBF765F804461C
:1059D800FAF748FD00222F4BFAF7AEFD0B460246B8
:1059E80039463046FAF7F0FBFBF756F80BF1010998
:1059F8000CAB183543F82B00059543F8294056E6BB
:105A080030463946FBF748F80CABD94643F82B002B
:105A18004DE60B9C01F10043C4E900030B460399D2
:105A28000246D1E90001FAF7CFFBB9F1000F3FF7C1
:105A3800D6AE01F100431946DEE60B9EC6E9002307
:105A4800069BC6E9040103F00700C6E902450DF507
:105A5800197DBDE8F08FA29B032B3FF6D0AE01A2C3
:105A680052F823F07D5A00089F5700089F570008F6
:105A7800395800080020002174E732463B460020D0
:105A88000649FAF7A1FB022506460F4624E5002041
:105A980000213CE7000070410000703E0000F03F2C
:105AA8002DE9F04F55EC104B2DED028BB0EE418AED
:105AB800F0EE618A25F00043B3F1795F83B0824646
:105AC80007DA10EE100A2946FAF7E6FF002800F078
